101 06200001919999999990509211317A094101Regions Bank           XYZ Company            Ref Code
5200XYZ Company     Discretionary Data  1999999999PPDPAYROLL    050921050923   1062000010000001