101 06200001919999999990509211317A094101Regions Bank           XYZ Company            Ref Code
5200XYZ